{
  "_format": "hh-sol-artifact-1",
  "contractName": "GigIdentity",
  "sourceName": "contracts/GigIdentity.sol",
  "abi": [
    {
      "inputs": [
        {
          "internalType": "string",
          "name": "_issuer",
          "type": "string"
        },
        {
          "internalType": "string",
          "name": "_title",
          "type": "string"
        },
        {
          "internalType": "string",
          "name": "_description",
          "type": "string"
        }
      ],
      "name": "addCredential",
      "outputs": [],
      "stateMutability": "nonpayable",
      "type": "function"
    },
    {
      "inputs": [
        {
          "internalType": "string",
          "name": "_jobTitle",
          "type": "string"
        },
        {
          "internalType": "string",
          "name": "_description",
          "type": "string"
        },
        {
          "internalType": "string",
          "name": "_startDate",
          "type": "string"
        },
        {
          "internalType": "string",
          "name": "_endDate",
          "type": "string"
        },
        {
          "internalType": "address",
          "name": "_employer",
          "type": "address"
        }
      ],
      "name": "addWorkHistory",
      "outputs": [],
      "stateMutability": "nonpayable",
      "type": "function"
    },
    {
      "inputs": [
        {
          "internalType": "string",
          "name": "_name",
          "type": "string"
        },
        {
          "internalType": "string[]",
          "name": "_skills",
          "type": "string[]"
        }
      ],
      "name": "createProfile",
      "outputs": [],
      "stateMutability": "nonpayable",
      "type": "function"
    },
    {
      "inputs": [
        {
          "internalType": "address",
          "name": "",
          "type": "address"
        },
        {
          "internalType": "uint256",
          "name": "",
          "type": "uint256"
        }
      ],
      "name": "credentials",
      "outputs": [
        {
          "internalType": "string",
          "name": "issuer",
          "type": "string"
        },
        {
          "internalType": "string",
          "name": "title",
          "type": "string"
        },
        {
          "internalType": "string",
          "name": "description",
          "type": "string"
        }
      ],
      "stateMutability": "view",
      "type": "function"
    },
    {
      "inputs": [
        {
          "internalType": "address",
          "name": "_user",
          "type": "address"
        },
        {
          "internalType": "uint256",
          "name": "_index",
          "type": "uint256"
        }
      ],
      "name": "getCredential",
      "outputs": [
        {
          "components": [
            {
              "internalType": "string",
              "name": "issuer",
              "type": "string"
            },
            {
              "internalType": "string",
              "name": "title",
              "type": "string"
            },
            {
              "internalType": "string",
              "name": "description",
              "type": "string"
            }
          ],
          "internalType": "struct GigIdentity.Credential",
          "name": "",
          "type": "tuple"
        }
      ],
      "stateMutability": "view",
      "type": "function"
    },
    {
      "inputs": [
        {
          "internalType": "address",
          "name": "_user",
          "type": "address"
        }
      ],
      "name": "getCredentialCount",
      "outputs": [
        {
          "internalType": "uint256",
          "name": "",
          "type": "uint256"
        }
      ],
      "stateMutability": "view",
      "type": "function"
    },
    {
      "inputs": [
        {
          "internalType": "address",
          "name": "_user",
          "type": "address"
        }
      ],
      "name": "getProfile",
      "outputs": [
        {
          "components": [
            {
              "internalType": "string",
              "name": "name",
              "type": "string"
            },
            {
              "internalType": "string[]",
              "name": "skills",
              "type": "string[]"
            }
          ],
          "internalType": "struct GigIdentity.Profile",
          "name": "",
          "type": "tuple"
        }
      ],
      "stateMutability": "view",
      "type": "function"
    },
    {
      "inputs": [
        {
          "internalType": "address",
          "name": "_user",
          "type": "address"
        },
        {
          "internalType": "uint256",
          "name": "_index",
          "type": "uint256"
        }
      ],
      "name": "getWorkHistory",
      "outputs": [
        {
          "components": [
            {
              "internalType": "string",
              "name": "jobTitle",
              "type": "string"
            },
            {
              "internalType": "string",
              "name": "description",
              "type": "string"
            },
            {
              "internalType": "string",
              "name": "startDate",
              "type": "string"
            },
            {
              "internalType": "string",
              "name": "endDate",
              "type": "string"
            },
            {
              "internalType": "address",
              "name": "employer",
              "type": "address"
            },
            {
              "internalType": "bool",
              "name": "verified",
              "type": "bool"
            }
          ],
          "internalType": "struct GigIdentity.WorkHistory",
          "name": "",
          "type": "tuple"
        }
      ],
      "stateMutability": "view",
      "type": "function"
    },
    {
      "inputs": [
        {
          "internalType": "address",
          "name": "_user",
          "type": "address"
        }
      ],
      "name": "getWorkHistoryCount",
      "outputs": [
        {
          "internalType": "uint256",
          "name": "",
          "type": "uint256"
        }
      ],
      "stateMutability": "view",
      "type": "function"
    },
    {
      "inputs": [
        {
          "internalType": "address",
          "name": "",
          "type": "address"
        }
      ],
      "name": "profiles",
      "outputs": [
        {
          "internalType": "string",
          "name": "name",
          "type": "string"
        }
      ],
      "stateMutability": "view",
      "type": "function"
    },
    {
      "inputs": [
        {
          "internalType": "address",
          "name": "_worker",
          "type": "address"
        },
        {
          "internalType": "uint256",
          "name": "_index",
          "type": "uint256"
        }
      ],
      "name": "verifyWork",
      "outputs": [],
      "stateMutability": "nonpayable",
      "type": "function"
    },
    {
      "inputs": [
        {
          "internalType": "address",
          "name": "",
          "type": "address"
        },
        {
          "internalType": "uint256",
          "name": "",
          "type": "uint256"
        }
      ],
      "name": "workHistories",
      "outputs": [
        {
          "internalType": "string",
          "name": "jobTitle",
          "type": "string"
        },
        {
          "internalType": "string",
          "name": "description",
          "type": "string"
        },
        {
          "internalType": "string",
          "name": "startDate",
          "type": "string"
        },
        {
          "internalType": "string",
          "name": "endDate",
          "type": "string"
        },
        {
          "internalType": "address",
          "name": "employer",
          "type": "address"
        },
        {
          "internalType": "bool",
          "name": "verified",
          "type": "bool"
        }
      ],
      "stateMutability": "view",
      "type": "function"
    }
  ],
  "bytecode": "0x608060405234801561001057600080fd5b5061289e806100206000396000f3fe608060405234801561001057600080fd5b50600436106100b45760003560e01c806372d32dd61161007157806372d32dd6146101cc5780637c4f4e0b146101e8578063a84a3a9414610218578063b361ea2514610234578063bad3251f14610264578063bbe1562714610280576100b4565b806303cb278a146100b95780630bdb2aa7146100eb5780630f53a470146101075780632d405995146101375780633a60455514610167578063483a014214610197575b600080fd5b6100d360048036038101906100ce9190611bf4565b6102b0565b6040516100e293929190612372565b60405180910390f35b61010560048036038101906101009190611d33565b61048f565b005b610121600480360381019061011c9190611bcb565b6107a1565b60405161012e91906125bd565b60405180910390f35b610151600480360381019061014c9190611bcb565b610964565b60405161015e9190612601565b60405180910390f35b610181600480360381019061017c9190611bcb565b6109b0565b60405161018e9190612601565b60405180910390f35b6101b160048036038101906101ac9190611bf4565b6109fc565b6040516101c3969594939291906123be565b60405180910390f35b6101e660048036038101906101e19190611c9c565b610ca2565b005b61020260048036038101906101fd9190611bf4565b610e4f565b60405161020f919061259b565b60405180910390f35b610232600480360381019061022d9190611c30565b611129565b005b61024e60048036038101906102499190611bf4565b611201565b60405161025b91906125df565b60405180910390f35b61027e60048036038101906102799190611bf4565b6115de565b005b61029a60048036038101906102959190611bcb565b61181c565b6040516102a79190612350565b60405180910390f35b600260205281600052604060002081815481106102cc57600080fd5b9060005260206000209060030201600091509150508060000180546102f090612799565b80601f016020809104026020016040519081016040528092919081815260200182805461031c90612799565b80156103695780601f1061033e57610100808354040283529160200191610369565b820191906000526020600020905b81548152906001019060200180831161034c57829003601f168201915b50505050509080600101805461037e90612799565b80601f01602080910402602001604051908101604052809291908181526020018280546103aa90612799565b80156103f75780601f106103cc576101008083540402835291602001916103f7565b820191906000526020600020905b8154815290600101906020018083116103da57829003601f168201915b50505050509080600201805461040c90612799565b80601f016020809104026020016040519081016040528092919081815260200182805461043890612799565b80156104855780601f1061045a57610100808354040283529160200191610485565b820191906000526020600020905b81548152906001019060200180831161046857829003601f168201915b5050505050905083565b60008551116104d3576040517f08c379a00000000000000000000000000000000000000000000000000000000081526004016104ca906124bb565b60405180910390fd5b6000845111610517576040517f08c379a000000000000000000000000000000000000000000000000000000000815260040161050e9061249b565b60405180910390fd5b600083511161055b576040517f08c379a00000000000000000000000000000000000000000000000000000000081526004016105529061257b565b60405180910390fd5b600082511161059f576040517f08c379a00000000000000000000000000000000000000000000000000000000081526004016105969061251b565b60405180910390fd5b600073ffffffffffffffffffffffffffffffffffffffff168173ffffffffffffffffffffffffffffffffffffffff16141561060f576040517f08c379a0000000000000000000000000000000000000000000000000000000008152600401610606906124fb565b60405180910390fd5b600160003373ffffffffffffffffffffffffffffffffffffffff1673ffffffffffffffffffffffffffffffffffffffff1681526020019081526020016000206040518060c001604052808781526020018681526020018581526020018481526020018373ffffffffffffffffffffffffffffffffffffffff16815260200160001515815250908060018154018082558091505060019003906000526020600020906005020160009091909190915060008201518160000190805190602001906106d99291906118c2565b5060208201518160010190805190602001906106f69291906118c2565b5060408201518160020190805190602001906107139291906118c2565b5060608201518160030190805190602001906107309291906118c2565b5060808201518160040160006101000a81548173ffffffffffffffffffffffffffffffffffffffff021916908373ffffffffffffffffffffffffffffffffffffffff16021790555060a08201518160040160146101000a81548160ff02191690831515021790555050505050505050565b6107a9611948565b6000808373ffffffffffffffffffffffffffffffffffffffff1673ffffffffffffffffffffffffffffffffffffffff16815260200190815260200160002060405180604001604052908160008201805461080290612799565b80601f016020809104026020016040519081016040528092919081815260200182805461082e90612799565b801561087b5780601f106108505761010080835404028352916020019161087b565b820191906000526020600020905b81548152906001019060200180831161085e57829003601f168201915b5050505050815260200160018201805480602002602001604051908101604052809291908181526020016000905b828210156109555783829060005260206000200180546108c890612799565b80601f01602080910402602001604051908101604052809291908181526020018280546108f490612799565b80156109415780601f1061091657610100808354040283529160200191610941565b820191906000526020600020905b81548152906001019060200180831161092457829003601f168201915b5050505050815260200190600101906108a9565b50505050815250509050919050565b6000600260008373ffffffffffffffffffffffffffffffffffffffff1673ffffffffffffffffffffffffffffffffffffffff168152602001908152602001600020805490509050919050565b6000600160008373ffffffffffffffffffffffffffffffffffffffff1673ffffffffffffffffffffffffffffffffffffffff168152602001908152602001600020805490509050919050565b60016020528160005260406000208181548110610a1857600080fd5b906000526020600020906005020160009150915050806000018054610a3c90612799565b80601f0160208091040260200160405190810160405280929190818152602001828054610a6890612799565b8015610ab55780601f10610a8a57610100808354040283529160200191610ab5565b820191906000526020600020905b815481529060010190602001808311610a9857829003601f168201915b505050505090806001018054610aca90612799565b80601f0160208091040260200160405190810160405280929190818152602001828054610af690612799565b8015610b435780601f10610b1857610100808354040283529160200191610b43565b820191906000526020600020905b815481529060010190602001808311610b2657829003601f168201915b505050505090806002018054610b5890612799565b80601f0160208091040260200160405190810160405280929190818152602001828054610b8490612799565b8015610bd15780601f10610ba657610100808354040283529160200191610bd1565b820191906000526020600020905b815481529060010190602001808311610bb457829003601f168201915b505050505090806003018054610be690612799565b80601f0160208091040260200160405190810160405280929190818152602001828054610c1290612799565b8015610c5f5780601f10610c3457610100808354040283529160200191610c5f565b820191906000526020600020905b815481529060010190602001808311610c4257829003601f168201915b5050505050908060040160009054906101000a900473ffffffffffffffffffffffffffffffffffffffff16908060040160149054906101000a900460ff16905086565b6000835111610ce6576040517f08c379a0000000000000000000000000000000000000000000000000000000008152600401610cdd9061243b565b60405180910390fd5b6000825111610d2a576040517f08c379a0000000000000000000000000000000000000000000000000000000008152600401610d21906124db565b60405180910390fd5b6000815111610d6e576040517f08c379a0000000000000000000000000000000000000000000000000000000008152600401610d659061249b565b60405180910390fd5b600260003373ffffffffffffffffffffffffffffffffffffffff1673ffffffffffffffffffffffffffffffffffffffff16815260200190815260200160002060405180606001604052808581526020018481526020018381525090806001815401808255809150506001900390600052602060002090600302016000909190919091506000820151816000019080519060200190610e0d9291906118c2565b506020820151816001019080519060200190610e2a9291906118c2565b506040820151816002019080519060200190610e479291906118c2565b505050505050565b610e57611962565b600260008473ffffffffffffffffffffffffffffffffffffffff1673ffffffffffffffffffffffffffffffffffffffff168152602001908152602001600020805490508210610edb576040517f08c379a0000000000000000000000000000000000000000000000000000000008152600401610ed29061255b565b60405180910390fd5b600260008473ffffffffffffffffffffffffffffffffffffffff1673ffffffffffffffffffffffffffffffffffffffff1681526020019081526020016000208281548110610f52577f4e487b7100000000000000000000000000000000000000000000000000000000600052603260045260246000fd5b9060005260206000209060030201604051806060016040529081600082018054610f7b90612799565b80601f0160208091040260200160405190810160405280929190818152602001828054610fa790612799565b8015610ff45780601f10610fc957610100808354040283529160200191610ff4565b820191906000526020600020905b815481529060010190602001808311610fd757829003601f168201915b5050505050815260200160018201805461100d90612799565b80601f016020809104026020016040519081016040528092919081815260200182805461103990612799565b80156110865780601f1061105b57610100808354040283529160200191611086565b820191906000526020600020905b81548152906001019060200180831161106957829003601f168201915b5050505050815260200160028201805461109f90612799565b80601f01602080910402602001604051908101604052809291908181526020018280546110cb90612799565b80156111185780601f106110ed57610100808354040283529160200191611118565b820191906000526020600020905b8154815290600101906020018083116110fb57829003601f168201915b505050505081525050905092915050565b600082511161116d576040517f08c379a00000000000000000000000000000000000000000000000000000000081526004016111649061245b565b60405180910390fd5b6040518060400160405280838152602001828152506000803373ffffffffffffffffffffffffffffffffffffffff1673ffffffffffffffffffffffffffffffffffffffff16815260200190815260200160002060008201518160000190805190602001906111dc9291906118c2565b5060208201518160010190805190602001906111f9929190611983565b509050505050565b6112096119e3565b600160008473ffffffffffffffffffffffffffffffffffffffff1673ffffffffffffffffffffffffffffffffffffffff16815260200190815260200160002080549050821061128d576040517f08c379a00000000000000000000000000000000000000000000000000000000081526004016112849061247b565b60405180910390fd5b600160008473ffffffffffffffffffffffffffffffffffffffff1673ffffffffffffffffffffffffffffffffffffffff1681526020019081526020016000208281548110611304577f4e487b7100000000000000000000000000000000000000000000000000000000600052603260045260246000fd5b90600052602060002090600502016040518060c001604052908160008201805461132d90612799565b80601f016020809104026020016040519081016040528092919081815260200182805461135990612799565b80156113a65780601f1061137b576101008083540402835291602001916113a6565b820191906000526020600020905b81548152906001019060200180831161138957829003601f168201915b505050505081526020016001820180546113bf90612799565b80601f01602080910402602001604051908101604052809291908181526020018280546113eb90612799565b80156114385780601f1061140d57610100808354040283529160200191611438565b820191906000526020600020905b81548152906001019060200180831161141b57829003601f168201915b5050505050815260200160028201805461145190612799565b80601f016020809104026020016040519081016040528092919081815260200182805461147d90612799565b80156114ca5780601f1061149f576101008083540402835291602001916114ca565b820191906000526020600020905b8154815290600101906020018083116114ad57829003601f168201915b505050505081526020016003820180546114e390612799565b80601f016020809104026020016040519081016040528092919081815260200182805461150f90612799565b801561155c5780601f106115315761010080835404028352916020019161155c565b820191906000526020600020905b81548152906001019060200180831161153f57829003601f168201915b505050505081526020016004820160009054906101000a900473ffffffffffffffffffffffffffffffffffffffff1673ffffffffffffffffffffffffffffffffffffffff1673ffffffffffffffffffffffffffffffffffffffff1681526020016004820160149054906101000a900460ff161515151581525050905092915050565b600160008373ffffffffffffffffffffffffffffffffffffffff1673ffffffffffffffffffffffffffffffffffffffff168152602001908152602001600020805490508110611662576040517f08c379a00000000000000000000000000000000000000000000000000000000081526004016116599061247b565b60405180910390fd5b600160008373ffffffffffffffffffffffffffffffffffffffff1673ffffffffffffffffffffffffffffffffffffffff16815260200190815260200160002081815481106116d9577f4e487b7100000000000000000000000000000000000000000000000000000000600052603260045260246000fd5b906000526020600020906005020160040160009054906101000a900473ffffffffffffffffffffffffffffffffffffffff1673ffffffffffffffffffffffffffffffffffffffff163373ffffffffffffffffffffffffffffffffffffffff1614611778576040517f08c379a000000000000000000000000000000000000000000000000000000000815260040161176f9061253b565b60405180910390fd5b60018060008473ffffffffffffffffffffffffffffffffffffffff1673ffffffffffffffffffffffffffffffffffffffff16815260200190815260200160002082815481106117f0577f4e487b7100000000000000000000000000000000000000000000000000000000600052603260045260246000fd5b906000526020600020906005020160040160146101000a81548160ff0219169083151502179055505050565b600060205280600052604060002060009150905080600001805461183f90612799565b80601f016020809104026020016040519081016040528092919081815260200182805461186b90612799565b80156118b85780601f1061188d576101008083540402835291602001916118b8565b820191906000526020600020905b81548152906001019060200180831161189b57829003601f168201915b5050505050905081565b8280546118ce90612799565b90600052602060002090601f0160209004810192826118f05760008555611937565b82601f1061190957805160ff1916838001178555611937565b82800160010185558215611937579182015b8281111561193657825182559160200191906001019061191b565b5b5090506119449190611a31565b5090565b604051806040016040528060608152602001606081525090565b60405180606001604052806060815260200160608152602001606081525090565b8280548282559060005260206000209081019282156119d2579160200282015b828111156119d15782518290805190602001906119c19291906118c2565b50916020019190600101906119a3565b5b5090506119df9190611a4e565b5090565b6040518060c0016040528060608152602001606081526020016060815260200160608152602001600073ffffffffffffffffffffffffffffffffffffffff1681526020016000151581525090565b5b80821115611a4a576000816000905550600101611a32565b5090565b5b80821115611a6e5760008181611a659190611a72565b50600101611a4f565b5090565b508054611a7e90612799565b6000825580601f10611a905750611aaf565b601f016020900490600052602060002090810190611aae9190611a31565b5b50565b6000611ac5611ac08461264d565b61261c565b9050808382526020820190508260005b85811015611b055781358501611aeb8882611b8c565b845260208401935060208301925050600181019050611ad5565b5050509392505050565b6000611b22611b1d84612679565b61261c565b905082815260208101848484011115611b3a57600080fd5b611b45848285612757565b509392505050565b600081359050611b5c8161283a565b92915050565b600082601f830112611b7357600080fd5b8135611b83848260208601611ab2565b91505092915050565b600082601f830112611b9d57600080fd5b8135611bad848260208601611b0f565b91505092915050565b600081359050611bc581612851565b92915050565b600060208284031215611bdd57600080fd5b6000611beb84828501611b4d565b91505092915050565b60008060408385031215611c0757600080fd5b6000611c1585828601611b4d565b9250506020611c2685828601611bb6565b9150509250929050565b60008060408385031215611c4357600080fd5b600083013567ffffffffffffffff811115611c5d57600080fd5b611c6985828601611b8c565b925050602083013567ffffffffffffffff811115611c8657600080fd5b611c9285828601611b62565b9150509250929050565b600080600060608486031215611cb157600080fd5b600084013567ffffffffffffffff811115611ccb57600080fd5b611cd786828701611b8c565b935050602084013567ffffffffffffffff811115611cf457600080fd5b611d0086828701611b8c565b925050604084013567ffffffffffffffff811115611d1d57600080fd5b611d2986828701611b8c565b9150509250925092565b600080600080600060a08688031215611d4b57600080fd5b600086013567ffffffffffffffff811115611d6557600080fd5b611d7188828901611b8c565b955050602086013567ffffffffffffffff811115611d8e57600080fd5b611d9a88828901611b8c565b945050604086013567ffffffffffffffff811115611db757600080fd5b611dc388828901611b8c565b935050606086013567ffffffffffffffff811115611de057600080fd5b611dec88828901611b8c565b9250506080611dfd88828901611b4d565b9150509295509295909350565b6000611e168383611ecf565b905092915050565b611e278161270f565b82525050565b611e368161270f565b82525050565b6000611e47826126b9565b611e5181856126dc565b935083602082028501611e63856126a9565b8060005b85811015611e9f5784840389528151611e808582611e0a565b9450611e8b836126cf565b925060208a01995050600181019050611e67565b50829750879550505050505092915050565b611eba81612721565b82525050565b611ec981612721565b82525050565b6000611eda826126c4565b611ee481856126ed565b9350611ef4818560208601612766565b611efd81612829565b840191505092915050565b6000611f13826126c4565b611f1d81856126fe565b9350611f2d818560208601612766565b611f3681612829565b840191505092915050565b6000611f4e6016836126fe565b91507f4973737565722063616e6e6f7420626520656d707479000000000000000000006000830152602082019050919050565b6000611f8e6014836126fe565b91507f4e616d652063616e6e6f7420626520656d7074790000000000000000000000006000830152602082019050919050565b6000611fce601a836126fe565b91507f496e76616c696420776f726b20686973746f727920696e6465780000000000006000830152602082019050919050565b600061200e601b836126fe565b91507f4465736372697074696f6e2063616e6e6f7420626520656d70747900000000006000830152602082019050919050565b600061204e6019836126fe565b91507f4a6f62207469746c652063616e6e6f7420626520656d707479000000000000006000830152602082019050919050565b600061208e6015836126fe565b91507f5469746c652063616e6e6f7420626520656d70747900000000000000000000006000830152602082019050919050565b60006120ce601f836126fe565b91507f456d706c6f79657220616464726573732063616e6e6f74206265207a65726f006000830152602082019050919050565b600061210e6018836126fe565b91507f456e6420646174652063616e6e6f7420626520656d70747900000000000000006000830152602082019050919050565b600061214e6018836126fe565b91507f4f6e6c7920656d706c6f7965722063616e2076657269667900000000000000006000830152602082019050919050565b600061218e6018836126fe565b91507f496e76616c69642063726564656e7469616c20696e64657800000000000000006000830152602082019050919050565b60006121ce601a836126fe565b91507f537461727420646174652063616e6e6f7420626520656d7074790000000000006000830152602082019050919050565b6000606083016000830151848203600086015261221e8282611ecf565b915050602083015184820360208601526122388282611ecf565b915050604083015184820360408601526122528282611ecf565b9150508091505092915050565b6000604083016000830151848203600086015261227c8282611ecf565b915050602083015184820360208601526122968282611e3c565b9150508091505092915050565b600060c08301600083015184820360008601526122c08282611ecf565b915050602083015184820360208601526122da8282611ecf565b915050604083015184820360408601526122f48282611ecf565b9150506060830151848203606086015261230e8282611ecf565b91505060808301516123236080860182611e1e565b5060a083015161233660a0860182611eb1565b508091505092915050565b61234a8161274d565b82525050565b6000602082019050818103600083015261236a8184611f08565b905092915050565b6000606082019050818103600083015261238c8186611f08565b905081810360208301526123a08185611f08565b905081810360408301526123b48184611f08565b9050949350505050565b600060c08201905081810360008301526123d88189611f08565b905081810360208301526123ec8188611f08565b905081810360408301526124008187611f08565b905081810360608301526124148186611f08565b90506124236080830185611e2d565b61243060a0830184611ec0565b979650505050505050565b6000602082019050818103600083015261245481611f41565b9050919050565b6000602082019050818103600083015261247481611f81565b9050919050565b6000602082019050818103600083015261249481611fc1565b9050919050565b600060208201905081810360008301526124b481612001565b9050919050565b600060208201905081810360008301526124d481612041565b9050919050565b600060208201905081810360008301526124f481612081565b9050919050565b60006020820190508181036000830152612514816120c1565b9050919050565b6000602082019050818103600083015261253481612101565b9050919050565b6000602082019050818103600083015261255481612141565b9050919050565b6000602082019050818103600083015261257481612181565b9050919050565b60006020820190508181036000830152612594816121c1565b9050919050565b600060208201905081810360008301526125b58184612201565b905092915050565b600060208201905081810360008301526125d7818461225f565b905092915050565b600060208201905081810360008301526125f981846122a3565b905092915050565b60006020820190506126166000830184612341565b92915050565b6000604051905081810181811067ffffffffffffffff82111715612643576126426127fa565b5b8060405250919050565b600067ffffffffffffffff821115612668576126676127fa565b5b602082029050602081019050919050565b600067ffffffffffffffff821115612694576126936127fa565b5b601f19601f8301169050602081019050919050565b6000819050602082019050919050565b600081519050919050565b600081519050919050565b6000602082019050919050565b600082825260208201905092915050565b600082825260208201905092915050565b600082825260208201905092915050565b600061271a8261272d565b9050919050565b60008115159050919050565b600073ffffffffffffffffffffffffffffffffffffffff82169050919050565b6000819050919050565b82818337600083830152505050565b60005b83811015612784578082015181840152602081019050612769565b83811115612793576000848401525b50505050565b600060028204905060018216806127b157607f821691505b602082108114156127c5576127c46127cb565b5b50919050565b7f4e487b7100000000000000000000000000000000000000000000000000000000600052602260045260246000fd5b7f4e487b7100000000000000000000000000000000000000000000000000000000600052604160045260246000fd5b6000601f19601f8301169050919050565b6128438161270f565b811461284e57600080fd5b50565b61285a8161274d565b811461286557600080fd5b5056fea2646970667358221220c09ca39cd7a807aa8cdab08ab7630575dd7ffb348f75e973e39f6b3c8ec4c72e64736f6c63430008000033",
  "linkReferences": {},
  "deployedLinkReferences": {}
}